:020000040800F2
:1000000000000220012A0108971500089F1500082A
:10001000A7150008AF150008B7150008000000007C
:10002000000000000000000000000000F1FC0008DB
:10003000BF1500080000000041FF0008E9E60008C5
:10004000512A0108512A0108512A0108512A0108A0
:10005000512A0108512A0108512A0108512A010890
:10006000512A0108512A0108512A0108512A010880
:10007000512A0108512A0108512A0108512A010870
:10008000512A0108512A0108512A010800000000E4
:10009000000000000000000000000000512A0108DC
:1000A000512A0108512A0108CD150008512A0108DA
:1000B000E1150008F5150008512A0108512A010828
:1000C000512A0108512A0108512A0108512A010820
:1000D000512A010809160008512A010800000000F1
:1000E000512A0108512A0108512A01080000000084
:1000F000000000000000000000000000512A01087C
:1001000000000000512A0108512A0108512A010863
:1001100000000000000000000000000000000000DF
:10012000512A0108512A01081D160008512A010808
:10013000512A01080000000000000000000000003B
:100140000000000000000000000000003116000860
:10015000512A0108512A010845160008512A0108B0
:10016000512A0108512A0108000000000000000087
:10017000000000000000000000000000000000007F
:1001800000000000512A01080000000000000000EB
:08019000512A0108512A01085F
:1001A000034613F8012B002AFBD1181A01387047B7
:1001B00001F0FF01102A2BDB10F0070F08D010F818
:1001C000013B013A8B422DD010F0070F42B3F6D11C
:1001D000F0B441EA012141EA014122F007047FF035
:1001E00000070023F0E80256083C85EA010586EA8C
:1001F000010685FA47F5A3FA87F586FA47F6A5FAC8
:1002000087F68EB9EED1F0BC01F0FF0102F00702D3
:1002100032B110F8013B013A83EA010313B1F8D17E
:100220000020704701387047002D06BF354603385F
:10023000073815F0010F07D1013015F4807F02BF98
:10024000013015F4C03F0130F0BC0138704700BFE9
:1002500053B94AB9002908BF00281CBF4FF0FF312D
:100260004FF0FF3000F00CB8ADF1080C6DE904CE92
:1002700013F0ECFEDDF804E0DDE9022304B0704782
:10028000704700BF0348044B834202D0034B03B1C5
:10029000184770476007002060070020000000003A
:1002A0000548064B1B1AD90F01EBA301491002D0D8
:1002B000034B03B118477047600700206007002018
:1002C0000000000010B5064C237843B9FFF7DAFFB1
:1002D000044B13B10448AFF300800123237010BD19
:1002E00060070020000000006C43010808B5054BC2
:1002F0001BB105490548AFF30080BDE80840FFF792
:10030000CFBF00BF00000000640700206C4301085D
:1003100080B500AF024803F0DBFA00BF80BD00BF2C
:100320002C78002080B400AF034B1B685B6A184632
:10033000BD4680BC704700BF2C78002080B582B0DD
:1003400000AF254B1B6808F0F5FF00F04DF8234B7C
:10035000DB68224A43F08073D360214B00225A604D
:100360001F4B1B681E4A43F00103136011F00CFF82
:1003700012F01AF812F064FA12F03EF812F0BAF81D
:1003800011F07CFF12F052F912F002F90EF0C6F9EA
:1003900001F0A0F90EF0E4F900237B6014E00022E4
:1003A0004FF400510F4808F0A5FA192009F000F8A1
:1003B00001224FF400510B4808F09CFA322008F05B
:1003C000F7FF7B6801337B607B68072BE7D94FF42D
:1003D000487008F0EDFFDFE7E4450108F0ED00E0CC
:1003E000001000E00008024080B594B000AF07F1B3
:1003F000200330220021184612F010FD07F10C03F3
:1004000000221A605A609A60DA601A610023BB60A9
:10041000274B1B6C264A43F080531364244B1B6C00
:1004200003F08053BB60BB6800237B60214B1B68DB
:10043000204A43F4404313601E4B1B6803F44043BF
:100440007B607B6801233B624FF480337B62022335
:10045000BB634FF48003FB6319233B64C0237B64BD
:100460000223BB640423FB6407F12003184607F052
:100470003BFC0346002B01D000F052F80F23FB6039
:1004800002233B6100237B614FF48053BB61002357
:10049000FB6107F10C030321184607F09DFE03469C
:1004A000002B01D000F03CF800BF5037BD4680BDA6
:1004B000003802400070004080B586B000AF786020
:1004C00007F1080300221A605A609A60DA607B68BC
:1004D000BB600123FB6000233B6107F10803194661
:1004E000054809F017F90346002B01D000F018F871
:1004F00000BF1837BD4680BD7C76002080B582B035
:1005000000AF78607B681B68044A934201D108F011
:1005100033FF00BF0837BD4680BD00BF0048014023
:1005200080B400AF72B600BF00BFFDE780B584B0F5
:1005300000AF786039603B689B8A1A467B68DA6056
:100540003B689B8A1A047B681A613B689B8A1A463F
:100550007B685A613B681A697B689A603B681A68D5
:100560007B681A603B689A687B685A603B681A7BB4
:100570007B6883F84C207B6818683B685B681A4688
:100580000E2104F0C6F87B68FB600123FB72FB7A46
:10059000002B02D0FB68DB6801E0FB681B69FA688E
:1005A0009268936100BF00BF1037BD4680BD80B523
:1005B000AAB000AF78607B6893F84A30012B04D072
:1005C000022B00F0848200F006BE7B68C7F8A430DE
:1005D000D7F8A43093F84230072B00F0FB81072BAB
:1005E00000F37082062B00F0CC81062B00F36A82A8
:1005F000052B00F09D81052B00F36482042B00F095
:10060000FD80042B00F35E82032B00F09E80032B01
:1006100000F35882022B63D0022B00F35382002B8D
:1006200002D0012B2FD04DE2D7F8A4301B681B68F5
:1006300040F2F312DA62D7F8A4301B6840F2F312EA
:10064000DA60D7F8A430C7F8A030002387F89F30CD
:1006500097F89F30002B03D0D7F8A030DB6802E07A
:10066000D7F8A0301B69D7F8A0209268936100BF2B
:10067000D7F8A43093F842300133DAB2D7F8A43077
:1006800083F8422021E2D7F8A4301B681B6863225C
:10069000DA62D7F8A4301B686322DA60D7F8A43096
:1006A000C7F89830012387F8973097F89730002BD8
:1006B00003D0D7F89830DB6802E0D7F898301B6990
:1006C000D7F898209268936100BFD7F8A43093F8C8
:1006D00042300133DAB2D7F8A43083F84220F4E193
:1006E000D7F8A430C7F89030D7F890309B681A69D3
:1006F000D7F890305B691340002B14BF012300230F
:10070000DBB2002B09D0D7F8A430032283F84B20AA
:10071000D7F8A40000F013FFD7E1D7F8A4301B6886
:100720001B6840F2F312DA62D7F8A4301B6840F27B
:10073000F312DA60D7F8A43093F842300133DAB21A
:10074000D7F8A43083F84220BFE1D7F8A430B3F83B
:1007500044301A46D7F8A43013441B7E1A46D7F803
:10076000A43093F8433042FA03F303F00103002B63
:1007700001D0092200E04522D7F8A4301B681B688D
:10078000DA62D7F8A430B3F844301A46D7F8A43068
:1007900013441B7E1A46D7F8A43093F8433042FA2C
:1007A00003F303F00103002B01D0092200E04522EE
:1007B000D7F8A4301B68DA60D7F8A430C7F88C30BB
:1007C000002387F88B3097F88B30002B03D0D7F8B5
:1007D0008C30DB6802E0D7F88C301B69D7F88C20AE
:1007E0009268936100BFD7F8A43093F84230013388
:1007F000DAB2D7F8A43083F8422066E1D7F8A43003
:10080000B3F844301A46D7F8A43013441B7E1A4676
:10081000D7F8A43093F8433042FA03F303F001030E
:10082000002B01D0452200E00922D7F8A4301B6834
:100830001B68DA62D7F8A430B3F844301A46D7F808
:10084000A43013441B7E1A46D7F8A43093F84330E3
:1008500042FA03F303F00103002B01D0452200E02C
:100860000922D7F8A4301B68DA60D7F8A430C7F89B
:100870008430012387F8833097F88330002B03D02E
:10088000D7F88430DB6802E0D7F884301B69D7F8EA
:1008900084209268936100BFD7F8A43093F8433066
:1008A0000133DAB2D7F8A43083F84320D7F8A43064
:1008B00093F84330082B35D1D7F8A430002283F8C1
:1008C0004320D7F8A430B3F8443001339AB2D7F8B4
:1008D000A430A3F84420D7F8A430B3F84420D7F8C4
:1008E000A430B3F846309A4216D1D7F8A430B3F802
:1008F0004830002B0AD0D7F8A430052283F84220D4
:10090000D7F8A4300022A3F84420DEE0D7F8A430C2
:10091000032283F84A20D8E0D7F8A430032283F8D2
:100920004220D2E0D7F8A430032283F84220CCE062
:10093000D7F8A4301B681B680922DA62D7F8A43004
:100940001B680922DA60D7F8A430FB67002387F818
:100950007B3097F87B30002B02D0FB6FDB6801E027
:10096000FB6F1B69FA6F9268936100BFD7F8A430E0
:1009700093F842300133DAB2D7F8A43083F842203A
:10098000A3E0D7F8A4301B681B680922DA62D7F805
:10099000A4301B680922DA60D7F8A4307B670123F2
:1009A00087F8733097F87330002B02D07B6FDB68C9
:1009B00001E07B6F1B697A6F9268936100BFD7F883
:1009C000A43093F842300133DAB2D7F8A43083F878
:1009D00042207AE0D7F8A4301B681B683B22DA6219
:1009E000D7F8A4301B683B22DA60D7F8A430FB6646
:1009F000FB6E9B681A69FB6E5B691340002B14BF8A
:100A000001230023DBB2002B28D0D7F8A430B3F8A1
:100A100046301A46D7F8A430B3F844301344D7F818
:100A2000A42013441B7E5AB2D7F8A43093F8433065
:100A3000194601238B405BB213435AB2D7F8A43056
:100A4000B3F846301946D7F8A430B3F844300B4415
:100A5000D1B2D7F8A42013440A461A76D7F8A430A6
:100A6000052283F84220D7F8A43093F843300133AD
:100A7000DAB2D7F8A43083F84320D7F8A43093F83B
:100A80004330082B20D1D7F8A430002283F843202C
:100A9000D7F8A430B3F8443001339AB2D7F8A43071
:100AA000A3F84420D7F8A430B3F84420D7F8A430F2
:100AB000B3F848309A4207D1D7F8A430032283F81C
:100AC0004A2001E000BF00E000BF00BF87E37B6871
:100AD000BB66BB6E93F842300C2B00F0BE820C2B31
:100AE00000F374830B2B00F06B820B2B00F36E83EF
:100AF0000A2B00F0EC810A2B00F36883092B00F02D
:100B0000C281092B00F36283082B00F09881082B27
:100B100000F35C83072B00F06881072B00F35683FA
:100B2000062B00F03E81062B00F35083052B00F0CE
:100B30001481052B00F34A83042B00F0C280042BA0
:100B400000F34483032B00F08280032B00F33E83E9
:100B5000022B51D0022B00F33983002B02D0012B42
:100B600026D033E3BB6E1B681B6840F2F312DA62D7
:100B7000BB6E1B6840F2F312DA60BB6E7B6600232B
:100B800087F8633097F86330002B02D07B6EDB6808
:100B900001E07B6E1B697A6E9268936100BFBB6E49
:100BA00093F842300133DAB2BB6E83F8422010E38F
:100BB000BB6E1B681B686322DA62BB6E1B68632214
:100BC000DA60BB6EFB65012387F85B3097F85B301A
:100BD000002B02D0FB6DDB6801E0FB6D1B69FA6D39
:100BE0009268936100BFBB6E93F842300133DAB272
:100BF000BB6E83F84220ECE2BB6E7B657B6D9B682D
:100C00001A697B6D5B691340002B14BF012300231D
:100C1000DBB2002B07D0BB6E032283F84B20B86EEB
:100C200000F08DFCD5E2BB6E1B681B6840F2F3122E
:100C3000DA62BB6E1B6840F2F312DA60BB6E93F8A7
:100C400042300133DAB2BB6E83F84220C1E2BB6EA0
:100C50001B7E1A46BB6E93F8433042FA03F303F04F
:100C60000103002B09D0BB6E1B681B680922DA62E6
:100C7000BB6E1B680922DA6008E0BB6E1B681B684C
:100C80004522DA62BB6E1B684522DA60BB6E3B65AB
:100C9000002387F84F3097F84F30002B02D03B6D80
:100CA000DB6801E03B6D1B693A6D9268936100BFA0
:100CB000BB6E93F842300133DAB2BB6E83F8422048
:100CC00087E2BB6E1B7E1A46BB6E93F8433042FA36
:100CD00003F303F00103002B09D0BB6E1B681B68F4
:100CE0004522DA62BB6E1B684522DA6008E0BB6E03
:100CF0001B681B680922DA62BB6E1B680922DA6076
:100D0000BB6EBB64012387F8473097F84730002B50
:100D100002D0BB6CDB6801E0BB6C1B69BA6C9268EB
:100D2000936100BFBB6E93F843300133DAB2BB6E00
:100D300083F84320BB6E93F84330082B08D1BB6E79
:100D4000002283F84320BB6E052283F8422040E254
:100D5000BB6E032283F842203BE2BB6E1B681B681C
:100D60000922DA62BB6E1B680922DA60BB6E3B6443
:100D7000002387F83F3097F83F30002B02D03B6CC0
:100D8000DB6801E03B6C1B693A6C9268936100BFC1
:100D9000BB6E93F842300133DAB2BB6E83F8422067
:100DA00017E2BB6E1B681B680922DA62BB6E1B6808
:100DB0000922DA60BB6EBB63012387F8373097F8EE
:100DC0003730002B02D0BB6BDB6801E0BB6B1B69CB
:100DD000BA6B9268936100BFBB6E93F842300133E7
:100DE000DAB2BB6E83F84220F3E1BB6E1B681B686E
:100DF0003B22DA62BB6E1B683B22DA60BB6E3B6350
:100E00003B6B9B681A693B6B5B691340002B14BFFB
:100E100001230023DBB2002B04D0BB6E102283F829
:100E20006E2003E0BB6E002283F86E20BB6E93F849
:100E300042300133DAB2BB6E83F84220C9E1BB6EA7
:100E40001B681B680922DA62BB6E1B680922DA6024
:100E5000BB6EFB62002387F82B3097F82B30002BFA
:100E600002D0FB6ADB6801E0FB6A1B69FA6A9268E0
:100E7000936100BFBB6E93F842300133DAB2BB6EB0
:100E800083F84220A5E1BB6E1B681B680922DA6269
:100E9000BB6E1B680922DA60BB6E7B62012387F898
:100EA000233097F82330002B02D07B6ADB6801E007
:100EB0007B6A1B697A6A9268936100BFBB6E93F884
:100EC00042300133DAB2BB6E83F8422081E1BB6E5F
:100ED0001B681B683B22DA62BB6E1B683B22DA6030
:100EE000BB6EFB61FB699B681A69FB695B69134018
:100EF000002B14BF01230023DBB2002B08D0BB6EF4
:100F000093F86E3043F00103DAB2BB6E83F86E20C3
:100F1000BB6E93F842300133DAB2BB6E83F84220E5
:100F2000BB6E93F843300133FB76BB6E93F86E30A3
:100F3000002B37D10023BB76BB6E93F86F30FA7E5F
:100F40009A4216D2BB6E93F84330DB08DBB21A46E6
:100F5000BB6E134493F872301A46BB6E93F843305D
:100F600003F0070342FA03F3DBB203F00103BB769D
:100F70000EE0BB6E93F86F30FA7E9A4202D10123E5
:100F8000BB7605E00023BB76BB6EFA7E83F870204B
:100F9000BB7E002B01D0102200E00122BB6E83F843
:100FA0006E2015E1BB6E93F86E30112B40F010816E
:100FB000BB6E052283F84B20B86E00F0C0FA07E143
:100FC000BB6E93F86E30102B25D1BB6E1B681B686F
:100FD0000922DA62BB6E1B680922DA60BB6E93F8E5
:100FE0004330DB08D8B20246BB6E134493F872302C
:100FF0005AB2BB6E93F8433003F00703012101FAA4
:1010000003F35BB213435BB20146DAB2BB6E0B442F
:1010100083F8722008E0BB6E1B681B684522DA6209
:10102000BB6E1B684522DA60BB6E7B610023FB74DC
:10103000FB7C002B02D07B69DB6801E07B691B69CC
:101040007A699268936100BFBB6E93F842300133B6
:10105000DAB2BB6E83F84220BBE0BB6E93F86E3011
:10106000102B09D1BB6E1B681B684522DA62BB6E70
:101070001B684522DA6008E0BB6E1B681B6809220A
:10108000DA62BB6E1B680922DA60BB6EFB6001236B
:10109000FB72FB7A002B02D0FB68DB6801E0FB6887
:1010A0001B69FA689268936100BFBB6E93F8433086
:1010B0000133DAB2BB6E83F84320BB6E93F8433042
:1010C000402B7ED1BB6E002283F84320BB6E0022F2
:1010D00083F84220BB6E72330721184600F083F874
:1010E00003461A46BB6E93F879309A4239D1BB6EEB
:1010F00093F84C30002B16D1BB6E93F86D3009334A
:10110000DB00BA6E1344581DBB6E723308221946B9
:1011100011F077FFBB6E93F86D300133DAB2BB6E1E
:1011200083F86D201DE0BB6E93F84C20BB6E93F8E6
:1011300072309A4215D1BB6E93F86D300933DB00E3
:10114000BA6E1344581DBB6E72330822194611F053
:1011500058FFBB6E93F86D300133DAB2BB6E83F883
:101160006D20BB6E723308220021184611F056FE26
:10117000BB6E93F87020BB6E83F86F20BB6E0022AD
:1011800083F87020BB6E93F86F30002B04D0BB6ED9
:1011900093F86D30042B08D1BB6E012283F87120C7
:1011A000BB6E032283F84A2013E0BB6EF0221A764E
:1011B000BB6E002283F84320BB6E002283F84220DE
:1011C00007E0BB6E052283F8422002E000BF00E08A
:1011D00000BF00BF03E0786800F0B1F900BF00BFB6
:1011E000A837BD4680BD80B485B000AF78600B469F
:1011F0007B800023FB7322E07B685A1C7A601B789B
:10120000BB7308237B7317E0FA7BBB7B5340DBB2D5
:1012100003F001033B73FB7B5B08FB733B7B002B01
:1012200004D0FB7B83F07303DB43FB73BB7B5B0866
:10123000BB737B7B013B7B737B7B002BE4D17B8887
:101240005A1E7A80002BD7D1FB7B18461437BD4637
:1012500080BC704780B483B000AF78607B6893F83F
:101260004A30002B14BF01230023DBB218460C3791
:10127000BD4680BC704780B582B000AF78607868AA
:1012800000F009F903461A467B6883F84B207B6817
:1012900093F84B30002B03D0786800F050F918E039
:1012A0007B68022283F84A207B68F0221A767B68EA
:1012B000002283F86D207B686E330C2200211846D3
:1012C00011F0ACFD7B684D3320220021184611F04F
:1012D000A5FD7B6893F84B3018460837BD4680BDA6
:1012E00080B586B000AFF8607B600B46FB7213469A
:1012F000BB727B68002B0AD13B8C002B07D0FB68AC
:10130000042283F84B20F86800F019F978E03A8C51
:10131000BB8C1344202B07DDFB68042283F84B2091
:10132000F86800F00CF96BE0FB6893F86D30002B67
:1013300005D0FB6893F86D30FA7A9A4207D3FB68C0
:10134000052283F84B20F86800F0F9F858E0F868B7
:1013500000F0A1F803461A46FB6883F84B20FB68AF
:1013600093F84B30002B03D0F86800F0E8F847E022
:10137000FB68012283F84A20FB6855221A76002375
:10138000FB7510E0F97AFA7DFB7D0133F868C9003E
:1013900001440A444D321178FA6813440A461A7619
:1013A000FB7D0133FB75FB7D072BEBD9FB68BA7A1C
:1013B00083F821207B68002B1AD00023BB820CE02D
:1013C000BB8A7A681A44BB8A0A331178FA681344D4
:1013D0000A461A76BB8A0133BB82BA8A3B8C9A4290
:1013E000EED33B8C0A339AB2FB68A3F8462003E0A5
:1013F000FB680A22A3F84620FB68BA8CA3F84820B1
:10140000FB6893F84B3018461837BD4680BD80B452
:1014100087B000AFF860B9601346FB80FB68B3F893
:101420004830FB82FA88FB8A9A4201D2FB88FB8211
:10143000FB68B3F846301A46FB8A13442A2B0DD9B1
:10144000FB68B3F84630292B06D8FB68B3F8463062
:10145000C3F12A03FB8201E0002317E00023BB82D3
:101460000FE0FB68B3F846301A46BB8A1A44BB8AC1
:10147000B9680B44F9680A44127E1A70BB8A0133BA
:10148000BB82BA8AFB8A9A42EBD3FB8A18461C3786
:10149000BD4680BC704780B586B000AF7860002341
:1014A000FB757B6893F84A30002B02D00123FB7553
:1014B00040E07B68FB600123FB72FB7A002B02D0CB
:1014C000FB68DB6801E0FB681B69FA68926893615E
:1014D00000BF7B683B613B699B681A693B695B693C
:1014E0001340002B14BF01230023DBB2002B02D1D9
:1014F0000223FB751EE07B681B681B6800221A61D3
:101500007B68183332220021184611F087FC7B6873
:101510001B681B6800225A627B681B681B68632279
:10152000DA627B681B686322DA607B681B68184696
:1015300002F026FAFB7D18461837BD4680BD80B5FF
:1015400084B000AF78607B681B68184602F078FAB8
:101550007B68FB600123FB72FB7A002B02D0FB68E7
:10156000DB6801E0FB681B69FA689268936100BF61
:101570007B68002283F84A207B685B68002B06D0DA
:101580007B685B687A6892F84B201046984700BFEA
:101590001037BD4680BD80B400AF00BFFDE780B40A
:1015A00000AF00BFFDE780B400AF00BFFDE780B42F
:1015B00000AF00BFFDE780B400AF00BFFDE780B41F
:1015C00000AF00BFBD4680BC7047000080B500AFD3
:1015D000024802F0A1FD00BF80BD00BFB440002062
:1015E00080B500AF024802F097FD00BF80BD00BF8C
:1015F000C476002080B500AF024802F08DFD00BF28
:1016000080BD00BF7877002080B500AF024808F0A9
:10161000CFFB00BF80BD00BF9479002080B500AF34
:10162000024807F031FB00BF80BD00BFDC7900201D
:1016300080B500AF024803F01EFF00BF80BD00BFB1
:101640004456002080B500AF024807F01DFB00BFE4
:1016500080BD00BF3C7A002080B582B000AF00237F
:101660007B60124B5B6C114A43F4804353640F4B15
:101670005B6C03F480437B607B6800233B600B4B17
:101680001B6C0A4A43F080531364084B1B6C03F035
:1016900080533B603B6800220F216FF0010007F090
:1016A0001FFE00BF0837BD4680BD00BF00380240A6
:1016B00080B483B000AF786000BF0C37BD4680BCFB
:1016C000704780B483B000AF786000BF0C37BD4670
:1016D00080BC704780B500AF5D4A002101200DF04D
:1016E00003FC03465B4A13605B4A002101200DF0B6
:1016F000FBFB0346594A1360594A002101200DF0B3
:10170000F3FB0346574A1360574A002101200DF0AE
:10171000EBFB0346554A1360554A002101200DF0AA
:10172000E3FB0346534A13604A4B1B6818460DF00F
:10173000B7FC4A4B1B6818460DF0B2FC494B1B68BE
:1017400018460DF0ADFC494B1B6818460DF0A8FC7F
:10175000484B1B6818460DF0A3FC474B00220121A3
:1017600046480DF0FFF90346454A1360454B0022F9
:10177000012145480DF0F6F90346444A1360444BF5
:101780000022002143480DF0EDF90346424A136060
:10179000424A042104200DF0C7FC0346404A13606E
:1017A000404A042104200DF0BFFC03463E4A13606A
:1017B0003E4A042104200DF0B7FC03463C4A136066
:1017C0003C4A032108200DF0AFFC03463A4A13605F
:1017D0003A4A00213A480CF0E9FF0346394A1360BF
:1017E000394A002139480CF0E1FF0346384A1360BA
:1017F000384A002138480CF0D9FF0346374A1360B5
:10180000374A002137480CF0D1FF0346364A1360AF
:10181000364A002136480CF0C9FF0346354A1360AA
:10182000354A002135480CF0C1FF0346344A1360A5
:10183000344A002134480CF0B9FF0346334A1360A0
:1018400033480DF039FA0346324A136000BF80BDB9
:10185000744701087C400020844701088040002034
:101860009447010884400020A447010888400020D4
:10187000B44701088C4000204447010805340008A3
:10188000EC3F0020544701081D3000081C40002098
:10189000644701088D2F00084C400020E4460108F1
:1018A000543E0020FC460108B83E002014470108C1
:1018B0001C3F00202C470108803F0020E84501081C
:1018C000191900087C0700200C460108BD280008F3
:1018D000E409002030460108D92500084C120020F8
:1018E00054460108812E0008B41A002078460108E9
:1018F0006D3000081C2300209C46010819340008A4
:10190000842B0020C046010851330008EC3B002026
:10191000C44701089040002080B582B000AF7860D5
:1019200000F086F801200DF0ECF8FBE780B58CB0F4
:1019300000AF78600023BB6200237B620023BB60A2
:10194000304B5B6C2F4A43F4802353642D4B5B6C0C
:1019500003F48023BB60BB6807F10C0207F110039E
:101960001146184606F014FE06F0FEFDB862BB6A8A
:10197000254AA2FB03239B0C013B7B62234B244A99
:101980001A60224B40F2E732DA60204A7B6A5360E9
:101990001E4B00221A611D4B00229A601B4B002235
:1019A0009A611A4801F038FF034687F82F3097F8FC
:1019B0002F30002B1BD1154801F0E2FF034687F8BA
:1019C0002F3097F82F30002B11D11A2007F0A4FCEC
:1019D0007B680F2B08D8002279681A2007F080FC5A
:1019E0000C4A7B68136002E0012387F82F300A4A13
:1019F0000E21064802F08DFE97F82F30184630373A
:101A0000BD4680BD0038024083DE1B43B440002049
:101A100000480140680600201D1A000880B582B009
:101A200000AF786007F0A8FC00BF0837BD4680BD56
:101A300080B500AF0022124912480EF029FC03467F
:101A4000002B01D0FEF76CFD0F490E480EF050FC44
:101A50000346002B01D0FEF763FD0C49094810F046
:101A600007FB0346002B01D0FEF75AFD05480EF098
:101A700075FC0346002B01D0FEF752FD00BF80BD70
:101A80000000002068410020840600205000002053
:101A900080B483B000AF03463960FB713B6812220B
:101AA0001A80034B18460C37BD4680BC704700BFF8
:101AB0001C00002080B483B000AF03463960FB7186
:101AC0003B6804221A80034B18460C37BD4680BC85
:101AD000704700BF3000002080B582B000AF0346E1
:101AE0003960FB71FB79002B05D13A68074908483A
:101AF0000FF0E2FD04E03A68044905480FF0DCFD10
:101B0000024B18460837BD4680BD00BF4444002044
:101B1000C844010880B582B000AF03463960FB714C
:101B20003A68044904480FF0C7FD024B18460837CD
:101B3000BD4680BD44440020E044010880B582B029
:101B400000AF03463960FB713B681A221A8000F02F
:101B500043F8024B18460837BD4680BD34000020CC
:101B600080B582B000AF03463960FB71FB79002B72
:101B700005D13A68074908480FF09EFD04E03A682D
:101B8000044905480FF098FD024B18460837BD463A
:101B900080BD00BF44440020F444010880B582B0F9
:101BA00000AF03463960FB71FB79002B05D13A6821
:101BB000074908480FF080FD04E03A6804490548E9
:101BC0000FF07AFD024B18460837BD4680BD00BFB6
:101BD000444400200045010880B584B000AF0F4B9D
:101BE0001B68FB600E4B1B68BB600E4B1B687B6069
:101BF000FA687B681344FB60FB68002B09D008225D
:101C00000949F86800F014F804220849B86800F09F
:101C10000FF800BF1037BD4680BD00BF107AFF1F10
:101C2000147AFF1F187AFF1F36000020460000209C
:101C300080B487B000AFF860B9601346FB71002331
:101C4000FB750023FB7527E0FB681B0F092B0BD8E6
:101C5000FB681B0FDAB2FB7D5B001946BB680B44C7
:101C60003032D2B21A700AE0FB681B0FDAB2FB7D89
:101C70005B001946BB680B443732D2B21A70FB685E
:101C80001B01FB60FB7D5B000133BA68134400223B
:101C90001A70FB7D0133FB75FA7DFB799A42D3D331
:101CA00000BF00BF1C37BD4680BC704780B500AF89
:101CB00000220549054810F0F4F90549034810F0E1
:101CC00011FA0023184680BD444E002068410020D0
:101CD0004446002080B400AF00231846BD4680BCB7
:101CE000704780B483B000AF03463960FB71134680
:101CF000BB80FB79232B1ED0232B1EDC222B1ED076
:101D0000222B1ADC212B1CD0212B16DC202B1AD0E5
:101D1000202B12DC042B18D0042B0EDC032B16D046
:101D2000032B0ADC022B14D0022B06DC002B12D072
:101D3000012B12D001E000BF10E000BF0EE000BF99
:101D40000CE000BF0AE000BF08E000BF06E000BFF3
:101D500004E000BF02E000BF00E000BF002318461F
:101D60000C37BD4680BC704780B582B000AF78604C
:101D700039607968054810F0B5F9044810F0CEF9DB
:101D8000002318460837BD4680BD00BF68410020CB
:101D900080B487B000AFF860B9601346FB710023D0
:101DA000FB7597F9173018461C37BD4680BC704745
:101DB00080B58AB000AF786007F1140300221A6082
:101DC0005A609A60DA601A617B681B68B3F1A04FB1
:101DD0003AD100233B611E4B1B6B1D4A43F00103AC
:101DE00013631B4B1B6B03F001033B613B694FF417
:101DF000C0537B610223BB610023FB6103233B6271
:101E00000A237B6207F114031946124806F0F0FB1F
:101E10000F4B5B6B0E4A43F0800353630023FB6060
:101E20000B4B5B6C0A4A43F480435364084B5B6C76
:101E300003F48043FB60FB6800220521432007F088
:101E40004FFA432007F068FA00BF2837BD4680BD2F
:101E5000003802400000024080B582B000AF7860D8
:101E60007B68D3F8E0247B6803F29C431946104654
:101E70000EF0C0FA00BF0837BD4680BD80B582B005
:101E800000AF78600B46FB707B68D3F8E004FA780B
:101E900079681346DB0013449B000B4403F5187369
:101EA0001A68FB7819460EF0FAFA00BF0837BD46EB
:101EB00080BD80B582B000AF78600B46FB707B6858
:101EC000D3F8E004FA7879681346DB0013449B00EA
:101ED0000B4420331A68FB7819460EF093FB00BFC1
:101EE0000837BD4680BD80B582B000AF78607B68A2
:101EF000D3F8E03418460EF0CAFC00BF0837BD46E0
:101F000080BD80B584B000AF78600123FB737B682F
:101F1000DB79022B01D0FEF703FB7B68D3F8E034BA
:101F2000FA7B114618460EF071FC7B68D3F8E0345A
:101F300018460EF019FC00BF1037BD4680BD0000EA
:101F400080B582B000AF78607B68D3F8E034184683
:101F50000EF06BFC7B681B6803F560631B687A6896
:101F6000126802F5606243F0010313607B68DB7A5C
:101F7000002B05D0044B1B69034A43F00603136191
:101F800000BF0837BD4680BD00ED00E080B582B0DF
:101F900000AF78607B68D3F8E03418460EF060FC40
:101FA00000BF0837BD4680BD80B582B000AF786005
:101FB0000B46FB707B68D3F8E034FA78114618467C
:101FC0000EF0B7FC00BF0837BD4680BD80B582B0BB
:101FD00000AF78600B46FB707B68D3F8E034FA788A
:101FE000114618460EF073FC00BF0837BD4680BD91
:101FF00080B582B000AF78607B68D3F8E0341846D3
:102000000EF0C9FC00BF0837BD4680BD80B582B068
:1020100000AF78607B68D3F8E03418460EF0C5FC5A
:1020200000BF0837BD4680BD80B582B000AF786084
:102030007B681B78002B3CD1204A7B68C2F8E034D7
:102040007B681E4AC3F8C8221C4B4FF0A0421A609E
:102050001A4B04221A71194B0222DA71174B002213
:102060009A71164B02225A72144B00229A72134B29
:102070000022DA72114B00221A73104B00229A735D
:102080000E4B0022DA730D4803F0B1F80346002B23
:1020900001D0FEF745FA8021084804F0DBFA40221F
:1020A0000021064804F090FA80220121034804F040
:1020B0008BFA002318460837BD4680BD44560020E1
:1020C00080B584B000AF78600023FB730023BB733E
:1020D0007B68D3F8C832184603F098F90346FB73BF
:1020E000FB7B184600F03FF90346BB73BB7B1846E9
:1020F0001037BD4680BD80B584B000AF786008461B
:1021000011461A460346FB700B46BB7013463B80D4
:102110000023FB730023BB737B68D3F8C802BB7832
:102120003A88F97803F06CFE0346FB73FB7B184694
:1021300000F019F90346BB73BB7B18461037BD4648
:1021400080BD80B584B000AF78600B46FB70002383
:10215000FB730023BB737B68D3F8C832FA7811464F
:10216000184603F0B7FE0346FB73FB7B184600F0EE
:10217000FAF80346BB73BB7B18461037BD4680BDDB
:1021800080B584B000AF78600B46FB700023FB7312
:102190000023BB737B68D3F8C832FA78114618461F
:1021A00003F06EFF0346FB73FB7B184600F0DBF881
:1021B0000346BB73BB7B18461037BD4680BD80B558
:1021C00084B000AF78600B46FB700023FB730023E4
:1021D000BB737B68D3F8C832FA781146184603F00F
:1021E000B2FF0346FB73FB7B184600F0BCF80346C6
:1021F000BB73BB7B18461037BD4680BD80B485B02D
:1022000000AF78600B46FB707B68D3F8C832FB6088
:1022100097F90330002B0BDAFB7803F07F02F968A3
:102220001346DB0013449B000B4416331B780BE072
:10223000FB7803F07F02F9681346DB0013449B0030
:102240000B4403F256231B7818461437BD4680BC56
:10225000704780B584B000AF78600B46FB700023F8
:10226000FB730023BB737B68D3F8C832FA7811463E
:10227000184603F0A1FD0346FB73FB7B184600F0F4
:1022800072F80346BB73BB7B18461037BD4680BD52
:1022900080B586B000AFF8607A603B600B46FB7299
:1022A0000023FB750023BB75FB68D3F8C802F97ADD
:1022B0003B687A6803F0AAFE0346FB75FB7D18466F
:1022C00000F051F80346BB75BB7D18461837BD4674
:1022D00080BD80B586B000AFF8607A603B600B4689
:1022E000FB720023FB750023BB75FB68D3F8C802A3
:1022F000F97A3B687A6803F037FE0346FB75FB7D8D
:10230000184600F030F80346BB75BB7D18461837F9
:10231000BD4680BD80B582B000AF78600B46FB70D3
:102320007B68D3F8C832FA781146184603F057FE96
:10233000034618460837BD4680BD000080B483B010
:1023400000AF7860024B18460C37BD4680BC704722
:10235000285B002080B483B000AF786000BF0C37EA
:10236000BD4680BC704780B485B000AF0346FB71AA
:102370000023FB73FB79032B13D0032B14DC022BFC
:102380000CD0022B10DC002B02D0012B03D00BE071
:102390000023FB730BE00323FB7308E00123FB73B3
:1023A00005E00323FB7302E00323FB7300BFFB7B09
:1023B00018461437BD4680BC7047000090B587B002
:1023C00000AF786000237B6100233B61424B1B68B8
:1023D0004FF0FF3118460CF011FE404B1B680021F6
:1023E00018460DF0A9F80346BB60BB68002B65D00A
:1023F000BC68786800F0B6F803462370BB680A2210
:102400005A70BB681B780B2B4DD07868FDF7C8FE5F
:10241000034601331A467968314810F0F2FDBB6873
:102420002F4A5A602F4B0A221A70BC680CF050FADF
:102430000346A3602C4B186807F10801FA23002219
:102440000CF0E6FEF860FB68002B16D07B695A1C86
:102450007A61042B11D9234B03221A701F4B1B687E
:10246000BA68114618460DF0DDF81B4B1B6818467C
:102470000CF016FE1B4B1B782AE0FB68002BD9D111
:10248000C0200CF07FFA4FF0FF320021C0200CF08A
:10249000B7FA38613B6903F08003002B11D0114B70
:1024A00003221A700DE00D4B1B68BA6811461846DE
:1024B0000DF0B8F80B4B03221A7002E0094B03220F
:1024C0001A70054B1B6818460CF0EAFD054B1B788B
:1024D00018461C37BD4690BD7C400020485D00205A
:1024E000545D0020505D0020B83E002090B585B0BE
:1024F00000AF78600023FB602AE0FA6813469B0077
:1025000013449A001344164A13445C1CFA68134699
:102510009B0013449A001344114A13440133184694
:10252000FDF73EFE03461A462146786810F07EFC11
:102530000346002B09D10A49FA6813469B0013444D
:102540009A0013440B441B7806E0FB680133FB60E0
:10255000FB680A2BD1D90A2318461437BD4690BD13
:10256000F448010890B585B000AF78600023FB60A7
:1025700027E0FA6813465B001344DB000833154A72
:102580009C18FA6813465B001344DB000833114AB9
:1025900013441846FDF704FE03461A4621467868A0
:1025A00010F044FC0346002B08D10A49FA68134690
:1025B0005B001344DB000B441B7806E0FB6801332F
:1025C000FB60FB680B2BD4D90B2318461437BD4690
:1025D00090BD00BFD447010890B58BB002AF7860C2
:1025E0000023FB770023BB600023BB6100237B61DA
:1025F00000233B618E4B186807F1080140F6B833A1
:1026000000220CF065FEF860FB6813F1020F2CD17C
:102610007B69002B00F035817B691B781946854A60
:102620000B465B000B44DB00134402331B781A4655
:102630003B69934205D27B69BB613B6901333B61D6
:102640001FE17D4B05221A707B699B68802118462B
:102650000CF04AF9794B1B68796918460CF0E2FFD7
:1026600000237B610023FB770BE1FB68002B40F02C
:102670000881BB681B780A2B04D8BB68BB610023A8
:102680003B6121E0BB685B780A2B1CD16A4B0322BB
:102690001A707B69002B0BD07B699B6880211846E0
:1026A0000CF022F9654B1B68796918460CF0BAFFEB
:1026B000624B1B68BA68114618460CF0B3FF002342
:1026C0007B610023FB7700BFBB685B78022B23D1C3
:1026D000BB685B6803F11400BB685B689968BB6802
:1026E0005B681A68BB685B68DC68BB685B681B6911
:1026F0000093234600F020FE514B1A68BB685B68CC
:10270000194610460CF08EFF4C4B1B68BA681146F8
:1027100018460CF087FFB4E0BB685B78042B03D04D
:10272000BB685B78072B12D1BB685B78184600F05A
:10273000EBFB424B1B68796918460CF073FF3F4B6B
:102740001B68BA68114618460CF06CFF99E0BB682C
:102750001B780B2B40F09580FB7F002B02D0012BC8
:1027600011D08EE07B69002B05D0344B1B68796952
:1027700018460CF057FF314B1B68BA6811461846D3
:102780000CF050FF7DE0BB685A787B691B781846D7
:10279000284903465B000344DB000B4401331B78EC
:1027A0009A4227D17B691B781946224A0B465B0067
:1027B0000B44DB00134401331A781F4B1A707B69FA
:1027C000002B0BD07B699B68402118460CF08CF8DD
:1027D0001A4B1B68796918460CF024FF174B1B68CD
:1027E000BA68114618460CF01DFF00237B610023D8
:1027F000FB7745E07B691B7819460E4A0B465B0068
:102800000B44DB00134402331B781A463B699342A6
:1028100018D23B6901333B617B69BB6100237B615B
:10282000064B1B68BA68114618460CF0FBFE27E001
:10283000B83E0020D4470108505D0020485D0020CC
:102840004C5D0020BB685A781A4B1A707B69002BCC
:102850000BD07B699B68802118460CF045F8164B1D
:102860001B68796918460CF0DDFE134B1B68BA68CB
:10287000114618460CF0D6FE00237B610023FB773F
:1028800000BFBB69002B3FF4B5AEBB697B61002381
:10289000BB610123FB777B695B681C467B695B68D6
:1028A0001846FDF77DFC03461946204600F09EFAC7
:1028B000A0E600BF505D0020485D002090B58DB0BF
:1028C00000AF786000220C2108200CF05FFD034669
:1028D0005D4A13600022542102200CF057FD03468C
:1028E0005A4A136000F0BCF80023BB62584B1868CA
:1028F00007F110014FF0FF3300220CF0E9FC786281
:102900007B6A002BF2D1504B1B68002118460CF05B
:1029100013FE0346FB60FB68002B00F08C80FB6815
:102920000B221A703B69FC681846FFF7DFFD03466F
:102930006370FB680A2B76D0FB685B78022B66D14C
:10294000424B1B68002118460CF0F6FD38623B69CB
:102950004049184610F07CFAF8613E49002010F01A
:1029600077FAF861FB69BB610023FB723B6A0022C6
:102970001A75B869FDF714FC02463B6A9A60002399
:10298000FB6219E0BA69FB6A13441B889BB23B8166
:1029900007F1080310220021184610F0D9F8034669
:1029A0007B61FB6A5B087A69D1B23A6A13440A46D2
:1029B0001A75FB6A0233FB623B6A9B68FA6A9A42A9
:1029C000E0D32449002010F043FAF861F86910F0D0
:1029D00040F803461A463B6A1A601E49002010F070
:1029E00037FAF861F86910F034F802463B6ADA60A9
:1029F0001849002010F02CFAF861F86910F029F855
:102A000002463B6A1A61FB683A6A5A6002E0FB6858
:102A100000225A60104B186807F10C0100230022B5
:102A20000CF0F6FB08E0084B1B68FA6811461846E4
:102A30000CF0F8FD00E0FEE7084B1B683A69114610
:102A400018460CF0EFFD51E7485D00204C5D00207A
:102A5000543E002010450108B83E0020EC5E0020E6
:102A600080B500AF0022402108200CF08FFC034607
:102A70000C4A13600B4B1B68002B01D100BFFDE714
:102A800000F018F840220849084807F033F9084BCD
:102A90001B681A68064B1B6822F008021A6000BF08
:102AA00080BD00BFEC5E0020AC5D0020947900206A
:102AB000DC79002080B500AF402200210D4810F0E5
:102AC000ADF94FF4807200210B4810F0A7F90B4BC1
:102AD0004FF48072DA60094B00221A60074B002223
:102AE0005A60064B00229A60044B034A1A6100BFE9
:102AF00080BD00BFAC5D0020EC5D0020985D002033
:102B000080B584B000AF786039602C4B1B69002B16
:102B100001D100234DE0294B1A68284B5B689A428B
:102B200006D3264BDA68254B1B68D31AFB6005E0F9
:102B3000224B5A68214B1B68D31AFB601F4B9A68C3
:102B40001E4BDB689A4201D10023FB60FA683B68A8
:102B5000934228BF1346BB60184B1A69174B1B687A
:102B60001344BA687968184610F04BFA134B1A6888
:102B7000BB681344114A1360104B9A68BB68134436
:102B80000E4A93600D4B1A680C4BDB689A420FD1CA
:102B90000A4B00221A607A68BB68D0183A68BB6892
:102BA000D31A1946FFF7ACFF0246BB68134400E096
:102BB000BB6818461037BD4680BD00BF985D002039
:102BC00080B584B000AF78603960214B1B69002B61
:102BD00001D1002337E000F0D5F802463B6893426C
:102BE00002D900F0CFF83860194B5A683B681A4494
:102BF000174BDB689A420AD2154B1A69144B5B6873
:102C000013443A681946786810F0FBF91AE0104B43
:102C1000DA680F4B5B68D31AFB600D4B1A690C4BDB
:102C20005B681344FA681946786810F0EAF97A6824
:102C3000FB68D018064B19693A68FB68D31A1A4624
:102C400010F0DFF93B6818461037BD4680BD00BF65
:102C5000985D002080B487B000AF0346FB71364B0F
:102C60001B69002B02D14FF0FF335FE0324B9B68B2
:102C7000002B02D14FF0FF3358E02F4B5A682E4BF8
:102C80001B689A421AD22C4B5B687B6110E02A4B7E
:102C90001A697B6913441B78FA799A4205D1264B4D
:102CA0005B687A69D31A013340E07B6901337B6149
:102CB000214B1B687A699A42E9D335E01E4B5B6869
:102CC0003B6110E01C4B1A693B6913441B78FA798D
:102CD0009A4205D1184B5B683A69D31A013325E053
:102CE0003B6901333B61144BDB683A699A42E9D393
:102CF0000023FB6013E0104B1A69FB6813441B7838
:102D0000FA799A4208D10C4BDA680B4B5B68D21AFD
:102D1000FB681344013309E0FB680133FB60064B99
:102D20001B68FA689A42E6D34FF0FF3318461C3707
:102D3000BD4680BC704700BF985D002080B584B060
:102D400000AF7860396039687868FFF739FFF8605C
:102D50000B4B9A68FB68D31A094A9360084B5A6870
:102D6000FB681344064AD268B3FBF2F101FB02F29E
:102D70009B1A034A5360FB6818461037BD4680BD56
:102D8000985D002080B400AF024B9B681846BD469A
:102D900080BC7047985D002080B582B000AF78603D
:102DA0000B467B807B8819460C48FFF7A9FE402222
:102DB0000A490B4806F09EFF0A4B1B681A68094B2C
:102DC0001B6822F008021A60074B1B680121184695
:102DD0000BF08AFD00BF0837BD4680BDAC5D00200A
:102DE00094790020DC790020B41A002080B584B0EA
:102DF00000AF78603960124B1B684FF0FF31184606
:102E00000CF0FCF80BF064FD03460E4A13603B68BF
:102E10009BB21A4679680C4806F0FCFE4FF0FF3270
:102E2000002101200BF0ECFDF860054B1B681846F3
:102E30000CF036F93B6818461037BD4680BD00BF20
:102E400084400020945D00209479002080B483B0F9
:102E500000AF786000BF0C37BD4680BC70470000F3
:102E600080B582B000AF7860044B1B680121184622
:102E70000BF03AFD00BF0837BD4680BD945D0020D1
:102E800080B586B000AF78604FF0FF32002101209E
:102E90000BF0B6FD78610A20FFF7DCFE38613B6974
:102EA000002BF1DD164B1B68002118460CF044FB8B
:102EB0000346FB60FB68002BE6D00CF0E3FFFB68E9
:102EC0001A463B6919461046FFF738FF07F10B0316
:102ED00001211846FFF774FEFB7A0D2B05D107F18F
:102EE0000B0301211846FFF729FF0CF0FBFF054BF0
:102EF000186807F10C01002300220CF089F9C3E7E0
:102F0000EC5E0020543E002080B582B000AF034646
:102F1000FB711A4B1B684FF0FF3118460CF06EF82E
:102F2000174B1B78DBB2042B1ED1FB79042B06D187
:102F3000144B00221A60082000F05AF80EE0114BE2
:102F40001B6801330F4A13600E4B1B68042B05D915
:102F50000C4B00221A60012000F04AF80A4B1B6853
:102F6000012118460BF0C0FC044B1B6818460CF0FE
:102F700097F800BF0837BD4680BD00BF88400020DD
:102F800064000020F05E00201C23002080B582B089
:102F900000AF78600B4B1B684FF0FF3118460CF008
:102FA0002DF8094B1B78DBB2102B02D1082000F062
:102FB0001FF8044B1B6818460CF072F800BF083766
:102FC000BD4680BD884000206400002080B500AF71
:102FD00003E041F288300BF094FD0448FFF7EEF96E
:102FE0000346082BF5D100BF80BD00BF1445010882
:102FF00080B582B000AF0346FB71064AFB791370BF
:10300000054B1B68012118460BF06EFC00BF08370A
:10301000BD4680BD640000201C23002080B582B026
:1030200000AF78600F4B1B78DBB2042B02D0082B6B
:1030300006D00CE04FF400510B4805F073FC0DE096
:1030400001224FF40051084805F054FC06E000222C
:103050004FF40051044805F04DFC00BF00BF083795
:10306000BD4680BD640000200008024080B586B0E7
:1030700000AF786000237B61404B1B68322118460B
:103080000BF0ECFD3E4B1B68012118460BF02CFCAD
:103090004FF0FF32002101200BF0B2FC3861394BB8
:1030A0001B684FF0FF3118460BF0A8FF364B1B682A
:1030B0001F2118460BF082FE344B1B78DBB2102B1D
:1030C00041D0102B4ADC082B45D0082B46DC042BC2
:1030D00043D0042B42DC012B02D0022B12D03DE066
:1030E000FFF774FF00237B610220FFF781FF244B71
:1030F0001B68012118460BF0F7FB4FF47A700BF0B8
:1031000000FD2BE07B691B02214A13441846FFF7A0
:1031100055F90346002B0CD17B6901337B617B6938
:10312000062B02D10420FFF763FF64200BF0E9FCBB
:1031300002E00120FFF75CFF114B1B6801211846DC
:103140000BF0D2FB0AE0134B1B6843F2B061184648
:103150000BF084FD02E000BF00E000BF0A4B1B68DB
:103160000A4A1278D2B2114618460BF0E5FDF86013
:10317000044B1B6818460BF093FF89E71C400020A6
:103180001C23002088400020904000206400002084
:10319000680000204C40002080B588B000AFF86087
:1031A000B9607A603B60FB68FB610023BB61BB6870
:1031B0007B61BB685B003A689A4203D23B685B085C
:1031C0007B6101E0BB687B6100233B6110E07A68B2
:1031D000BB69D018FB695A1CFA611B781A46094969
:1031E0000FF0B6FDBB690233BB613B6901333B6144
:1031F0003A697B699A42EAD3BB6918462037BD46D3
:1032000080BD00BF1C45010880B584B000AFF860E8
:10321000B9607A6000F00AF87A68B968F86800F076
:1032200025F8034618461037BD4680BD80B500AF6F
:103230000C4B18684FF0FF33022208210BF0EFFD12
:10324000094B1B684FF0FF3118460BF0D7FE054BBA
:1032500018684FF0FF33022208210BF0E0FD00BF99
:1032600080BD00BF904000208C40002080B588B019
:1032700002AFF860B9607A604FF0FF337B611C4B9E
:103280001B684FF0FF3118460BF0B8FE194B1B7846
:10329000DBB2082B1DD14023174A7968B868FFF7C5
:1032A0007BFF3861144B0093FB68144A502114488B
:1032B0000FF01CFD1248FFF781F80346012B05D1E2
:1032C0001020FFF795FE00237B6102E00120FFF74D
:1032D0008FFE074B1B6818460BF0E2FE094B1B687C
:1032E00018460BF0DDFE7B6918461837BD4680BDD9
:1032F0008840002064000020F45E0020344501086E
:10330000345F00208C40002080B582B000AF786030
:103310000348FDF74CF900BF0837BD4680BD00BF2C
:103320008460002080B483B000AF0346FB7100BF0F
:103330000C37BD4680BC704780B485B000AFF860E4
:10334000B9607A603B6000BF1437BD4680BC7047EF
:1033500080B586B000AF7860234B186807F10C0188
:103360004FF0FF3300220BF0B3FF38613B69002BB5
:10337000F2D1BB89642B26D8BB89FA8A9A4206D13E
:10338000BB891A4619491A480FF0E2FC05E0BB89CF
:103390001A46184916480FF0DBFC174B1B68DB6A0E
:1033A000BA8903FB02F2144B1B681449A1FB0212F9
:1033B00052099A630E48FCF7F3FE034619460C487F
:1033C000FFF714FD0DE0BB891A460D4908480FF0C0
:1033D000BFFC0748FCF7E4FE034619460448FFF724
:1033E00005FDBB89FB82B7E7803F00204845010807
:1033F000845F00206C450108787700201F85EB5121
:103400009445010880B483B000AF786000BF0C37EA
:10341000BD4680BC7047000080B59AB002AF7860AE
:1034200000233B874FF00003FB654FF00003BB65B3
:103430004FF000037B654FF000033B654FF0000346
:10344000FB640023BB64B24BFB60B24BFB612023E7
:103450003B84B14B3B61B14B7B6100233B7607F171
:103460000C031946AE48FDF761F800200AF058FC3D
:10347000AC4B1B6800225A620021AA4800F074FB82
:103480000421A84800F09EFC01221021A14805F06B
:1034900031FA0A2000F09CF9002210219D4805F025
:1034A00029FA07F134024FF47A734FF0FF3100200C
:1034B0000AF040FA0346012B17D17B6B07EE903AD6
:1034C000F8EE677A9FED987A27EE877ADFED976AB4
:1034D000C7EE267AC7ED177AD7ED177AFCEEE77AB2
:1034E00017EE903A9BB27B870CE04FF00003FB6530
:1034F00000237B8700218B4800F002FC04218948CF
:1035000000F06AFD0220FCF7D7FF894805F0B8FFFC
:103510006421874806F066F8854806F0EEF8034611
:10352000A7F84630B7F8463007EE903AF8EE677ADB
:10353000B1EE047A27EE877ADFED7E6AC7EE267A4F
:10354000C7ED167A9FED7C7AD7ED167A37EE677A5B
:10355000DFED7A6AC7EE267AB1EE0C7A77EE877ADB
:10356000C7ED167AD7ED167A9FED757A67EE877AF2
:10357000FCEEE77A17EE903A9BB2BB870320FCF78C
:103580009BFF6B4805F07CFF6421694806F02AF830
:10359000674806F0B2F80346A7F84630B7F8463059
:1035A00007EE903AF8EE677AB1EE047A27EE877A62
:1035B000DFED606AC7EE267AC7ED157A97ED157ACA
:1035C000DFED606AC7EE267AB7EE007A77EE677AAB
:1035D0009FED5D7A67EE877AC7ED157AD7ED157A9C
:1035E000B2EE047A67EE877AFCEEE77A17EE903A4D
:1035F0009BB2FB874A48FDF73EFE02E0012009F03E
:10360000EBF94748FDF726FE0346002BF6D10A20CA
:1036100009F0E2F9002301930023009300234422E0
:1036200000213F48FDF75CFE4FF47A7009F0D4F9B1
:1036300009230193002300930023BE220021384870
:10364000FDF74EFE02E0012009F0C6F93448FDF70F
:1036500001FE0346002BF6D107F124031022194680
:103660002F48FDF7D4FE97F825301BB21B021AB283
:1036700097F824301BB213431BB2A7F84430B7F8B5
:10368000443007EE903AB8EE677AF3EE006AC7EE80
:10369000267AC7ED147AD7ED147AB2EE047A67EE83
:1036A000877AFCEEE77A17EE903A9BB2A7F84030A3
:1036B000264B1B6800225A624FF47A7009F08CF98D
:1036C000224B1B685B6ABB64BB6C07EE903AB8EE9A
:1036D000677ADFED1F6AC7EE267AC7ED137AD7ED5A
:1036E000137AB2EE047A67EE877AFCEEE77A17EE89
:1036F000903A9BB2A7F842303B8F01339BB23B8795
:1037000007F138030C2219460220FFF77DFDACE6D5
:1037100078770020000002400933000825330008B4
:1037200084600020C47600200080AB430000FA448F
:103730007C76002000F07F4514AE2740EC51383EE7
:103740000000C8421F856B4000007A45E0780020E9
:103750003333D34080B586B002AF78607B68194AB6
:1037600093422AD17B681B7F022B26D17B681B6882
:103770009A6B7B681B685B6BD31AFB600023BB6092
:10378000114B186807F10803009300230322F9681E
:103790000AF0E6F900210B4800F0B2FA04210948CA
:1037A00000F01AFCBB68002B07D0084B4FF080528A
:1037B0001A60BFF34F8FBFF36F8F00BF1037BD4646
:1037C00080BD00BFC4760020842B002004ED00E003
:1037D00080B584B000AF78600D4B5B68FB6004F08F
:1037E000A5FE03460B4AA2FB03239A0C7B6802FB4F
:1037F00003F3BB6000BF064B5A68FB68D31ABA6874
:103800009A42F8D800BF00BF1037BD4680BD00BF48
:10381000001000E083DE1B4380B582B000AF78600B
:103820007B68002B01D101234CE07B6893F83D308D
:10383000DBB2002B11D17B68002283F83C20786832
:1038400001F0F6FB7B689B6C002B02D17B681F4A62
:103850009A647B689B6C786898477B68022283F83F
:103860003D207B681A687B6804331946104601F0D6
:10387000EFF87B68012283F846207B68012283F8F9
:103880003E207B68012283F83F207B68012283F879
:1038900040207B68012283F841207B68012283F865
:1038A00042207B68012283F843207B68012283F851
:1038B00044207B68012283F845207B68012283F83D
:1038C0003D20002318460837BD4680BDD526010897
:1038D00080B485B000AF78607B6893F83D30DBB290
:1038E000012B01D001233CE07B68022283F83D20BC
:1038F0007B681B681D4A934218D07B681B68B3F134
:10390000804F13D07B681B68194A93420ED07B68A6
:103910001B68184A934209D07B681B68164A934279
:1039200004D07B681B68154A934211D17B681B68E1
:103930009B6803F00703FB60FB68062B10D07B68D5
:103940001B681A687B681B6842F001021A6007E076
:103950007B681B681A687B681B6842F001021A606A
:10396000002318461437BD4680BC70470000014054
:103970000004004000080040000C004000400140EE
:1039800080B485B000AF78607B6893F83D30DBB2DF
:10399000012B01D0012344E07B68022283F83D2003
:1039A0007B681B68DA687B681B6842F00102DA609A
:1039B0007B681B681D4A934218D07B681B68B3F173
:1039C000804F13D07B681B68194A93420ED07B68E6
:1039D0001B68184A934209D07B681B68164A9342B9
:1039E00004D07B681B68154A934211D17B681B6821
:1039F0009B6803F00703FB60FB68062B10D07B6815
:103A00001B681A687B681B6842F001021A6007E0B5
:103A10007B681B681A687B681B6842F001021A60A9
:103A2000002318461437BD4680BC70470000014093
:103A30000004004000080040000C0040004001402D
:103A400080B483B000AF78607B681B68DA687B68FD
:103A50001B6822F00102DA607B681B681A6A41F277
:103A600011131340002B0FD17B681B681A6A40F2B8
:103A700044431340002B07D17B681B681A687B689E
:103A80001B6822F001021A607B68012283F83D2046
:103A9000002318460C37BD4680BC704780B582B005
:103AA00000AF78607B68002B01D101234CE07B687C
:103AB00093F83D30DBB2002B11D17B68002283F8F4
:103AC0003C20786801F0B4FA7B681B6D002B02D1B2
:103AD0007B681F4A1A657B681B6D786898477B680E
:103AE000022283F83D207B681A687B6804331946FC
:103AF000104600F0ADFF7B68012283F846207B680A
:103B0000012283F83E207B68012283F83F207B68F6
:103B1000012283F840207B68012283F841207B68E2
:103B2000012283F842207B68012283F843207B68CE
:103B3000012283F844207B68012283F845207B68BA
:103B4000012283F83D20002318460837BD4680BD7A
:103B5000553B000880B483B000AF786000BF0C37DD
:103B6000BD4680BC7047000080B584B000AF78606F
:103B700039603B68002B04D17B6893F83E30FB73BF
:103B800013E03B68042B04D17B6893F83F30FB7350
:103B90000BE03B68082B04D17B6893F84030FB7343
:103BA00003E07B6893F84130FB733B68002B04D142
:103BB0007B6893F84230BB7313E03B68042B04D15D
:103BC0007B6893F84330BB730BE03B68082B04D150
:103BD0007B6893F84430BB7303E07B6893F845300F
:103BE000BB73FB7B012B02D1BB7B012B01D00123DB
:103BF00077E03B68002B04D17B68022283F83E20EB
:103C000013E03B68042B04D17B68022283F83F2039
:103C10000BE03B68082B04D17B68022283F840202C
:103C200003E07B68022283F841203B68002B04D12B
:103C30007B68022283F8422013E03B68042B04D106
:103C40007B68022283F843200BE03B68082B04D1F9
:103C50007B68022283F8442003E07B68022283F819
:103C600045207B681B6801223968184601F0BBF9C2
:103C70007B681B681D4A934218D07B681B68B3F1B0
:103C8000804F13D07B681B68194A93420ED07B6823
:103C90001B68184A934209D07B681B68164A9342F6
:103CA00004D07B681B68154A934211D17B681B685E
:103CB0009B6803F00703BB60BB68062B10D07B68D2
:103CC0001B681A687B681B6842F001021A6007E0F3
:103CD0007B681B681A687B681B6842F001021A60E7
:103CE000002318461037BD4680BD00BF00000140CC
:103CF0000004004000080040000C0040004001406B
:103D000080B582B000AF786039607B681B680022A4
:103D10003968184601F067F97B681B681A6A41F236
:103D200011131340002B0FD17B681B681A6A40F2F5
:103D300044431340002B07D17B681B681A687B68DB
:103D40001B6822F001021A603B68002B04D17B68DB
:103D5000012283F83E2013E03B68042B04D17B68EA
:103D6000012283F83F200BE03B68082B04D17B68DD
:103D7000012283F8402003E07B68012283F8412080
:103D80003B68002B04D17B68012283F8422013E0BA
:103D90003B68042B04D17B68012283F843200BE0AD
:103DA0003B68082B04D17B68012283F8442003E0A0
:103DB0007B68012283F84520002318460837BD465A
:103DC00080BD000080B584B000AF7860396000230A
:103DD000FB733B68002B04D17B6893F83E30BB73C8
:103DE00013E03B68042B04D17B6893F83F30BB732E
:103DF0000BE03B68082B04D17B6893F84030BB7321
:103E000003E07B6893F84130BB733B68002B04D11F
:103E10007B6893F842307B7313E03B68042B04D13A
:103E20007B6893F843307B730BE03B68082B04D12D
:103E30007B6893F844307B7303E07B6893F84530EC
:103E40007B73BB7B012B02D17B7B012B01D0012338
:103E5000B4E03B68002B04D17B68022283F83E204B
:103E600013E03B68042B04D17B68022283F83F20D7
:103E70000BE03B68082B04D17B68022283F84020CA
:103E800003E07B68022283F841203B68002B04D1C9
:103E90007B68022283F8422013E03B68042B04D1A4
:103EA0007B68022283F843200BE03B68082B04D197
:103EB0007B68022283F8442003E07B68022283F8B7
:103EC00045203B680C2B2AD03B680C2B30D83B6834
:103ED000082B1BD03B68082B2AD83B68002B03D04B
:103EE0003B68042B09D023E07B681B68DA687B6899
:103EF0001B6842F00202DA601DE07B681B68DA682A
:103F00007B681B6842F00402DA6014E07B681B687F
:103F1000DA687B681B6842F00802DA600BE07B68B5
:103F20001B68DA687B681B6842F01002DA6002E006
:103F30000123FB7300BFFB7B002B3ED17B681B681A
:103F400001223968184601F04EF87B681B681D4A4B
:103F5000934218D07B681B68B3F1804F13D07B6805
:103F60001B68194A93420ED07B681B68174A93421C
:103F700009D07B681B68164A934204D07B681B6893
:103F8000144A934211D17B681B689B6803F00703B6
:103F9000BB60BB68062B10D07B681B681A687B6807
:103FA0001B6842F001021A6007E07B681B681A6810
:103FB0007B681B6842F001021A60FB7B18461037D1
:103FC000BD4680BD000001400004004000080040E4
:103FD000000C00400040014080B584B000AF786024
:103FE00039600023FB733B680C2B2AD03B680C2BF9
:103FF00030D83B68082B1BD03B68082B2AD83B687D
:10400000002B03D03B68042B09D023E07B681B689E
:10401000DA687B681B6822F00202DA601DE07B68C8
:104020001B68DA687B681B6822F00402DA6014E01F
:104030007B681B68DA687B681B6822F00802DA601C
:104040000BE07B681B68DA687B681B6822F0100253
:10405000DA6002E00123FB7300BFFB7B002B56D12B
:104060007B681B6800223968184600F0BCFF7B683B
:104070001B681A6A41F211131340002B0FD17B68A1
:104080001B681A6A40F244431340002B07D17B6837
:104090001B681A687B681B6822F001021A603B6883
:1040A000002B04D17B68012283F83E2013E03B689B
:1040B000042B04D17B68012283F83F200BE03B688E
:1040C000082B04D17B68012283F8402003E07B6841
:1040D000012283F841203B68002B04D17B68012238
:1040E00083F8422013E03B68042B04D17B68012253
:1040F00083F843200BE03B68082B04D17B68012246
:1041000083F8442003E07B68012283F84520FB7B91
:1041100018461037BD4680BD80B584B000AF7860CA
:104120007B681B68DB68FB607B681B681B69BB6086
:10413000BB6803F00203002B26D0FB6803F00203E8
:10414000002B21D07B681B686FF002021A617B682C
:1041500001221A777B681B689B6903F00303002B1D
:1041600005D07B68D3F890307868984709E07B6881
:10417000D3F89830786898477B68D3F89C30786893
:1041800098477B6800221A77BB6803F00403002B72
:1041900026D0FB6803F00403002B21D07B681B684A
:1041A0006FF004021A617B6802221A777B681B6831
:1041B0009B6903F44073002B05D07B68D3F89030E3
:1041C0007868984709E07B68D3F898307868984712
:1041D0007B68D3F89C30786898477B6800221A7710
:1041E000BB6803F00803002B26D0FB6803F008032C
:1041F000002B21D07B681B686FF008021A617B6876
:1042000004221A777B681B68DB6903F00303002B29
:1042100005D07B68D3F890307868984709E07B68D0
:10422000D3F89830786898477B68D3F89C307868E2
:1042300098477B6800221A77BB6803F01003002BB5
:1042400026D0FB6803F01003002B21D07B681B688D
:104250006FF010021A617B6808221A777B681B686E
:10426000DB6903F44073002B05D07B68D3F89030F2
:104270007868984709E07B68D3F898307868984761
:104280007B68D3F89C30786898477B6800221A775F
:10429000BB6803F00103002B0ED0FB6803F00103A1
:1042A000002B09D07B681B686FF001021A617B68E4
:1042B000D3F8803078689847BB6803F08003002B00
:1042C0000ED0FB6803F08003002B09D07B681B68CD
:1042D0006FF080021A617B68D3F8B0307868984735
:1042E000BB6803F04003002B0ED0FB6803F04003D3
:1042F000002B09D07B681B686FF040021A617B6855
:10430000D3F8883078689847BB6803F02003002B07
:104310000ED0FB6803F02003002B09D07B681B68DC
:104320006FF020021A617B68D3F8A830786898474C
:1043300000BF1037BD4680BD80B586B000AFF860C5
:10434000B9607A600023FB75FB6893F83C30012B61
:1043500001D1022388E0FB68012283F83C207B68BE
:10436000002B1BD1FB681868BB681968BB685A68CA
:10437000BB68DB6800F088FCFB681B689A69FB6817
:104380001B6822F00C029A61FB681B689969BB6884
:104390009A68FB681B680A439A6160E07B68042B9B
:1043A0001CD1FB681868BB681968BB685A68BB6891
:1043B000DB6800F0FDFCFB681B689A69FB681B6802
:1043C00022F440629A61FB681B689969BB689B682C
:1043D0001A02FB681B680A439A6140E07B68082B5D
:1043E0001BD1FB681868BB681968BB685A68BB6852
:1043F000DB6800F048FDFB681B68DA69FB681B6836
:1044000022F00C02DA61FB681B68D969BB689A6804
:10441000FB681B680A43DA6121E07B680C2B1CD126
:10442000FB681868BB681968BB685A68BB68DB68BA
:1044300000F064FDFB681B68DA69FB681B6822F406
:104440004062DA61FB681B68D969BB689B681A0225
:10445000FB681B680A43DA6101E00123FB75FB6816
:10446000002283F83C20FB7D18461837BD4680BDEE
:1044700080B584B000AF786039600023FB737B683F
:1044800093F83C30012B01D10223B4E07B68012278
:1044900083F83C207B68022283F83D207B681B6800
:1044A0009B68BB60BB6823F07703BB60BB6823F4E9
:1044B0007F43BB607B681B68BA689A603B681B6877
:1044C000B3F5005F3ED0B3F5005F00F28780B3F52F
:1044D000805F00F08680B3F5805F7FD8702B1AD0A4
:1044E000702B7BD8602B50D0602B77D8502B3CD0D2
:1044F000502B73D8402B58D0402B6FD8302B64D022
:10450000302B6BD8202B60D0202B67D8002B5CD0B1
:10451000102B5AD062E07B6818683B6899683B684A
:104520005A683B68DB6800F03FFD7B681B689B684E
:10453000BB60BB6843F07703BB607B681B68BA68ED
:104540009A604FE07B6818683B6899683B685A68D6
:104550003B68DB6800F028FD7B681B689A687B6815
:104560001B6842F480429A603CE07B6818683B68B4
:1045700059683B68DB681A4600F0ECFB7B681B68F7
:104580005021184600F0F6FC2CE07B6818683B6868
:1045900059683B68DB681A4600F046FC7B681B687C
:1045A0006021184600F0E6FC1CE07B6818683B6858
:1045B00059683B68DB681A4600F0CCFB7B681B68D7
:1045C0004021184600F0D6FC0CE07B681A683B6876
:1045D0001B681946104600F0CDFC03E00123FB7375
:1045E00000E000BF7B68012283F83D207B68002249
:1045F00083F83C20FB7B18461037BD4680BD80B554
:1046000082B000AF786039607B6893F83C30012B52
:1046100001D1022331E07B68012283F83C207B68D2
:10462000022283F83D203968786800F09BFA03463F
:10463000002B09D07B68012283F83D207B68002293
:1046400083F83C20012318E07B681B68DA687B68EC
:104650001B6822F04002DA607B681B68DA687B68BE
:104660001B6822F48042DA607B68012283F83D20D7
:104670007B68002283F83C20002318460837BD469B
:1046800080BD80B483B000AF786000BF0C37BD46FA
:1046900080BC704780B483B000AF786000BF0C3737
:1046A000BD4680BC704780B483B000AF786000BF67
:1046B0000C37BD4680BC704780B483B000AF7860D3
:1046C00000BF0C37BD4680BC704780B483B000AFDC
:1046D000786000BF0C37BD4680BC704780B483B0A3
:1046E00000AF786000BF0C37BD4680BC704780B417
:1046F00083B000AF786000BF0C37BD4680BC704708
:1047000080B483B000AF786000BF0C37BD4680BC7A
:10471000704780B487B000AFF8600B467A60FB72D8
:104720000023FB757B68002B01D101238AE1FB6824
:1047300093F83D30DBB2012B40F00A81FB7A1A2B53
:1047400000F0FE801A2B00F30081192B00F0F3809B
:10475000192B00F3FA80182B00F0E880182B00F3D7
:10476000F480172B00F0DD80172B00F3EE80162B62
:1047700000F0D280162B00F3E880152B00F0C780E4
:10478000152B00F3E280142B00F0BC80142B00F3F7
:10479000DC80132B00F0B180132B00F3D680122B9A
:1047A00000F0A680122B00F3D080112B00F09B802C
:1047B000112B00F3CA80102B00F09080102B00F317
:1047C000C4800F2B00F085800F2B00F3BE800E2BD2
:1047D0007AD00E2B00F3B9800D2B71D00D2B00F386
:1047E000B4800C2B68D00C2B00F3AF800B2B5FD068
:1047F0000B2B00F3AA800A2B56D00A2B00F3A580BE
:10480000092B4DD0092B00F3A080082B44D0082B96
:1048100000F39B80072B3BD0072B00F39680062BE1
:1048200032D0062B00F39180052B29D0052B00F305
:104830008C80042B20D0042B00F38780032B17D00F
:10484000032B00F38280022B0ED0022B7DDC002B89
:1048500002D0012B04D078E0FB687A689A64F0E01B
:10486000FB687A68DA64ECE0FB687A681A65E8E06D
:10487000FB687A685A65E4E0FB687A689A65E0E06C
:10488000FB687A68DA65DCE0FB687A681A66D8E06B
:10489000FB687A685A66D4E0FB687A689A66D0E06A
:1048A000FB687A68DA66CCE0FB687A681A67C8E069
:1048B000FB687A685A67C4E0FB687A689A67C0E068
:1048C000FB687A68DA67BCE0FB687A68C3F8802026
:1048D000B7E0FB687A68C3F88420B2E0FB687A68C6
:1048E000C3F88820ADE0FB687A68C3F88C20A8E0A4
:1048F000FB687A68C3F89020A3E0FB687A68C3F885
:1049000094209EE0FB687A68C3F8982099E0FB68E1
:104910007A68C3F89C2094E0FB687A68C3F8A0200A
:104920008FE0FB687A68C3F8A4208AE0FB687A68A5
:10493000C3F8A82085E0FB687A68C3F8AC2080E063
:10494000FB687A68C3F8B0207BE00123FB7578E050
:10495000FB6893F83D30DBB2002B70D1FB7A0D2B56
:1049600066D00D2B68DC0C2B5ED00C2B64DC0B2B83
:1049700056D00B2B60DC0A2B4ED00A2B5CDC092BAB
:1049800046D0092B58DC082B3ED0082B54DC072BD3
:1049900036D0072B50DC062B2ED0062B4CDC052BFB
:1049A00026D0052B48DC042B1ED0042B44DC032B23
:1049B00016D0032B40DC022B0ED0022B3CDC002B4C
:1049C00002D0012B04D037E0FB687A689A6438E0A3
:1049D000FB687A68DA6434E0FB687A681A6530E06C
:1049E000FB687A685A652CE0FB687A689A6528E06B
:1049F000FB687A68DA6524E0FB687A681A6620E06A
:104A0000FB687A685A661CE0FB687A689A6618E068
:104A1000FB687A68DA6614E0FB687A681A6710E067
:104A2000FB687A685A670CE0FB687A689A6708E066
:104A3000FB687A68DA6704E00123FB7501E0012373
:104A4000FB75FB7D18461C37BD4680BC70470000D7
:104A500080B485B000AF786039607B681B68FB600C
:104A60007B68394A93420FD07B68B3F1804F0BD0FB
:104A70007B68364A934207D07B68354A934203D01D
:104A80007B68344A934208D1FB6823F07003FB60D3
:104A90003B685B68FA681343FB607B682A4A934271
:104AA0001BD07B68B3F1804F17D07B68274A9342B5
:104AB00013D07B68264A93420FD07B68254A9342E5
:104AC0000BD07B68244A934207D07B68234A9342E9
:104AD00003D07B68224A934208D1FB6823F44073D9
:104AE000FB603B68DB68FA681343FB60FB6823F0FC
:104AF00080023B685B691343FB607B68FA681A605D
:104B00003B689A687B68DA623B681A687B689A62DD
:104B10007B680D4A934203D13B681A697B681A632C
:104B20007B6801225A617B681B6903F00103012B3A
:104B300005D17B681B6923F001027B681A6100BF05
:104B40001437BD4680BC704700000140000400409F
:104B500000080040000C00400040014000440140BB
:104B60000048014080B586B000AF7860396000230E
:104B7000FB757B681B689B683B613B6923F0700396
:104B80003B613B685B683A6913433B613B6923F0D7
:104B900007033B613B681B683A6913433B617B68D1
:104BA0001B683A699A603B685B68702B1AD0702B5F
:104BB00060D8602B54D0602B5CD8502B46D0502B43
:104BC00058D8402B19D0402B54D8302B55D0302BEF
:104BD00050D8202B51D0202B4CD8002B4DD0102B4F
:104BE0004BD047E07B6818683B68D9683B689A6897
:104BF0003B681B6900F0D8F940E03B681B68052B57
:104C000001D101233BE07B681B681B6AFB607B686A
:104C10001B681A6A7B681B6822F001021A627B68B3
:104C20001B689B69BB60BB6823F0F003BB603B68FB
:104C30001B691B01BA681343BB607B681B68BA68B9
:104C40009A617B681B68FA681A6217E07B681868CB
:104C50003B6899683B681B691A4600F07BF80DE0D9
:104C60007B6818683B6899683B681B691A4600F0C6
:104C7000DBF803E00123FB7500E000BFFB7D184675
:104C80001837BD4680BD000080B487B000AFF86023
:104C9000B9607A603B60FB681B6A3B61FB681B6A1A
:104CA00023F00102FB681A62FB689B697B61FB6869
:104CB000234A934213D0FB68B3F1804F0FD0FB68B7
:104CC000204A93420BD0FB681F4A934207D0FB68EF
:104CD0001E4A934203D0FB681D4A934201D101232F
:104CE00000E00023002B08D07B6923F003037B61E5
:104CF0007A697B6813437B6103E07B6943F00103BE
:104D00007B617B6923F0F0037B613B681B01DBB2B5
:104D10007A6913437B613B6923F00A033B61BB68FB
:104D200003F00A033A6913433B61FB687A699A61AD
:104D3000FB683A691A6200BF1C37BD4680BC7047E9
:104D4000000001400004004000080040000C00404A
:104D50000040014080B487B000AFF860B9607A606D
:104D6000FB681B6A7B61FB681B6A23F00102FB681E
:104D70001A62FB689B693B613B6923F0F0033B616E
:104D80007B681B013A6913433B617B6923F00A038B
:104D90007B617A69BB6813437B61FB683A699A61FE
:104DA000FB687A691A6200BF1C37BD4680BC704739
:104DB00080B487B000AFF860B9607A603B60FB6890
:104DC0001B6A7B61FB681B6A23F01002FB681A6296
:104DD000FB689B693B613B6923F440733B617B68E3
:104DE0001B023A6913433B613B6923F470433B6107
:104DF0003B681B039BB23A6913433B617B6923F019
:104E0000A0037B61BB681B0103F0A0037A69134315
:104E10007B61FB683A699A61FB687A691A6200BF34
:104E20001C37BD4680BC704780B487B000AFF860C7
:104E3000B9607A60FB681B6A7B61FB681B6A23F0C0
:104E40001002FB681A62FB689B693B613B6923F4B3
:104E500070433B617B681B033A6913433B617B6989
:104E600023F0A0037B61BB681B017A6913437B615C
:104E7000FB683A699A61FB687A691A6200BF1C375D
:104E8000BD4680BC704780B487B000AFF860B960A1
:104E90007A603B60FB681B6A7B61FB681B6A23F4DA
:104EA0008072FB681A62FB68DB693B613B6923F037
:104EB00003033B613A697B6813433B613B6923F021
:104EC000F0033B613B681B01DBB23A6913433B6172
:104ED0007B6923F420637B61BB681B0203F42063BE
:104EE0007A6913437B61FB683A69DA61FB687A6926
:104EF0001A6200BF1C37BD4680BC704780B487B0C3
:104F000000AFF860B9607A603B60FB681B6A7B6148
:104F1000FB681B6A23F48052FB681A62FB68DB693A
:104F20003B613B6923F440733B617B681B023A6938
:104F300013433B613B6923F470433B613B681B03B4
:104F40009BB23A6913433B617B6923F420437B6145
:104F5000BB681B0303F420437A6913437B61FB683E
:104F60003A69DA61FB687A691A6200BF1C37BD468C
:104F700080BC704780B485B000AF786039607B68D2
:104F80009B68FB60FB6823F07003FB603A68FB687A
:104F9000134343F00703FB607B68FA689A6000BF25
:104FA0001437BD4680BC704780B487B000AFF8604E
:104FB000B9607A603B60FB689B687B617B6923F426
:104FC0007F437B613B681A027B681A43BB681343CB
:104FD0007A6913437B61FB687A699A6000BF1C376A
:104FE000BD4680BC704780B487B000AFF860B96040
:104FF0007A60BB6803F01F03012202FA03F37B61AE
:10500000FB681A6A7B69DB431A40FB681A62FB681B
:105010001A6ABB6803F01F03796801FA03F31A43A5
:10502000FB681A6200BF1C37BD4680BC7047000099
:1050300080B483B000AF78607B681C4AC3F88020DE
:105040007B681B4AC3F884207B681A4AC3F888200F
:105050007B68194AC3F88C207B68184AC3F89020F3
:105060007B68174AC3F894207B68164AC3F89820D7
:105070007B68154AC3F89C207B68144AC3F8A020BB
:105080007B68134AC3F8A4207B68124AC3F8A8209F
:105090007B68114AC3F8AC207B68104AC3F8B02083
:1050A00000BF0C37BD4680BC704700BFFD04000840
:1050B00083460008DD460008EF4600085537000823
:1050C000A746000895460008B9460008CB460008E8
:1050D00001470008B9510008CB510008DD51000814
:1050E00080B485B000AF786039607B6893F83C305D
:1050F000012B01D1022350E07B68012283F83C2080
:105100007B68022283F83D207B681B685B68FB603C
:105110007B681B689B68BB60FB6823F07003FB60C7
:105120003B681B68FA681343FB607B681B68FA687E
:105130005A607B681B681B4A934218D07B681B68C7
:10514000B3F1804F13D07B681B68174A93420ED08F
:105150007B681B68154A934209D07B681B68144A18
:10516000934204D07B681B68124A93420CD1BB68FF
:1051700023F08003BB603B685B68BA681343BB6085
:105180007B681B68BA689A607B68012283F83D20BF
:105190007B68002283F83C20002318461437BD4664
:1051A00080BC70470000014000040040000800403F
:1051B000000C00400040014080B483B000AF786034
:1051C00000BF0C37BD4680BC704780B483B000AFD1
:1051D000786000BF0C37BD4680BC704780B483B098
:1051E00000AF786000BF0C37BD4680BC704780B50B
:1051F00086B002AF78607B68002B01D1012301E10A
:105200007B681B68BB607B6893F89534DBB2002B2E
:1052100006D17B68002283F894247868FCF7C8FDE7
:105220007B68032283F89524BB68B3F1A04F02D1B9
:105230007B6800229A717B681B68184601F03CFB72
:105240007B6818687B681A7C8DF8002004330ECBCD
:1052500001F01BFA0346002B05D07B68022283F87D
:1052600095240123CEE07B681B680021184601F0DD
:1052700033FB0346002B05D07B68022283F895247C
:105280000123BFE00023FB734AE0FA7B79681346F1
:10529000DB0013449B000B44153301221A70FA7B88
:1052A00079681346DB0013449B000B441433FA7BEC
:1052B0001A70FA7BFB7B98B279681346DB001344C3
:1052C0009B000B442E3302461A80FA7B7968134602
:1052D000DB0013449B000B44183300221A70FA7B46
:1052E00079681346DB0013449B000B441C330022F7
:1052F0001A60FA7B79681346DB0013449B000B4469
:10530000203300221A60FA7B79681346DB001344CD
:105310009B000B44243300221A60FB7B0133FB7398
:105320007B681B79FA7B9A42AFD30023FB7344E07E
:10533000FA7B79681346DB0013449B000B4403F2AD
:10534000552300221A70FA7B79681346DB00134458
:105350009B000B4403F51573FA7B1A70FA7B79688E
:105360001346DB0013449B000B4403F51673002225
:105370001A70FA7B79681346DB0013449B000B44D8
:1053800003F5177300221A60FA7B79681346DB0075
:1053900013449B000B4403F5187300221A60FA7B38
:1053A00079681346DB0013449B000B4403F5197323
:1053B00000221A60FB7B0133FB737B681B79FA7B4D
:1053C0009A42B5D37B6818687B681A7C8DF80020F8
:1053D00004330ECB01F0CCFA0346002B05D07B68DA
:1053E000022283F8952401230CE07B6800225A7482
:1053F0007B68012283F895247B681B68184602F0BD
:1054000009FB002318461037BD4680BD80B584B027
:1054100000AF78607B681B68FB607B6893F894340E
:10542000012B01D1022322E07B68012283F894241E
:10543000FB68DB6803F04003002B09D07B685B7BD3
:10544000012B05D1FB689B6B43F48032FB689A63A8
:105450007B681B68184601F01FFA7B681B681846BA
:1054600002F0B8FA7B68002283F8942400231846DF
:105470001037BD4680BD90B58DB000AF78607B68B9
:105480001B683B623B6AFB617B681B68184602F045
:105490006FFB0346002B40F08C847B681B6818462A
:1054A00002F0D8FA0346002B00F08284FB6903F572
:1054B00000639B681B0AC3F30D027B68C3F8D42406
:1054C0007B681B68184602F0C5FA034603F0020326
:1054D000022B07D17B681B685A697B681B6802F046
:1054E00002025A617B681B68184602F0B3FA034651
:1054F00003F01003102B61D17B681B689A697B68ED
:105500001B6822F010029A613B6A1B6ABB61BB698F
:1055100003F00F021346DB0013449B0003F51473E2
:105520007A68134404337B61BB6903F4F013B3F569
:10553000802F24D1BA6947F6F0731340002B35D081
:105540007B69D968BB691B099BB2C3F30A039BB291
:105550001A46386A02F0F0F87B69DA68BB691B0901
:10556000C3F30A031A447B69DA607B695A69BB6931
:105570001B09C3F30A031A447B695A6116E0BB692D
:1055800003F4F013B3F5402F10D17B6803F29C4372
:1055900008221946386A02F0CFF87B695A69BB695C
:1055A0001B09C3F30A031A447B695A617B681B68B1
:1055B0009A697B681B6842F010029A617B681B68DD
:1055C000184602F047FA034603F40023B3F5002F10
:1055D00040F0A78000237B627B681B68184602F0BE
:1055E0004BFAB86299E0BB6A03F00103002B00F0AC
:1055F0008E807B681B687A6AD2B21146184602F028
:105600006DFA38613B6903F00103002B0CD07B6A13
:105610005A01FB69134403F530631A460123936072
:10562000796A786800F0A2FE3B6903F00803002B5A
:105630000CD07B6A5A01FB69134403F530631A46A8
:1056400008239360796A786800F078FF3B6903F07B
:105650001003002B08D07B6A5A01FB69134403F541
:1056600030631A46102393603B6903F00203002B5A
:1056700030D03B6A5B6903F08003802B09D1FB6962
:1056800003F500635B68FA6902F5006243F4806326
:1056900053607A6A1346DB0013449B0003F51473CE
:1056A0007A68134404337B617B69DB78012B08D172
:1056B0007B690022DA707B6ADBB219467868FCF7F6
:1056C00073FC7B6A5A01FB69134403F530631A4685
:1056D000022393603B6903F02003002B08D07B6A10
:1056E0005A01FB69134403F530631A462023936083
:1056F0003B6903F40053002B09D07B6A5A01FB6914
:10570000134403F530631A464FF4005393607B6AE9
:1057100001337B62BB6A5B08BB62BB6A002B7FF410
:1057200062AF7B681B68184602F094F9034603F4E5
:105730008023B3F5802F40F0DB807B681B68184620
:1057400002F0B3F9B86200237B62CDE0BB6A03F0DC
:105750000103002B00F0C2807B681B687A6AD2B21A
:105760001146184602F0D7F938613B6903F001038E
:10577000002B57D07B6A03F00F03012202FA03F3D8
:10578000FB60FB6903F500635A6BFB68DB43F96957
:1057900001F5006113404B637B6A5A01FB691344B6
:1057A00003F510631A46012393607B689B79012BF4
:1057B00032D179687A6A1346DB0013449B000B44AC
:1057C0002033196878687A6A1346DB0013449B001B
:1057D00003441C331B68194478687A6A1346DB005B
:1057E00013449B000344203319607B6A002B13D1C0
:1057F00079687A6A1346DB0013449B000B44243318
:105800001B68002B08D17B6818687B6803F29C43F7
:105810001A46012102F0DCF97B6ADBB2194678688E
:10582000FCF747FB3B6903F00803002B08D07B6AB9
:105830005A01FB69134403F510631A460823936069
:105840003B6903F01003002B08D07B6A5A01FB6907
:10585000134403F510631A46102393603B6903F069
:105860004003002B08D07B6A5A01FB69134403F5FF
:1058700010631A46402393603B6903F00203002B38
:1058800023D0796A386A01F0D7F97A6A1346DB00C7
:1058900013449B0010337A68134404337B617B69A3
:1058A000DB78012B08D17B690022DA707B6ADBB2DE
:1058B00019467868FCF78AFB7B6A5A01FB69134436
:1058C00003F510631A46022393603B6903F08003DB
:1058D000002B03D0796A786800F0BCFC7B6A013346
:1058E0007B62BB6A5B08BB62BB6A002B7FF42EAF96
:1058F0007B681B68184602F0ADF8034603F00043CE
:10590000B3F1004F22D1FB6903F500635B68FA69CC
:1059100002F5006223F0010353607B6893F8CC34F6
:10592000012B08D17B68002283F8CC240021786801
:1059300000F0A0FE02E07868FCF728FB7B681B689B
:105940005A697B681B6802F000425A617B681B68D9
:10595000184602F07FF8034603F40063B3F5006FC6
:1059600012D1FB6903F500639B6803F00103012B6F
:1059700002D17868FCF7E4FA7B681B685A697B6897
:105980001B6802F400625A617B681B68184602F0CB
:1059900061F8034603F48053B3F5805F40F0B780AD
:1059A000FB6903F500635B68FA6902F5006223F0A6
:1059B000010353607B681B681021184601F03CF915
:1059C0000023FB6246E0FB6A5A01FB69134403F5BE
:1059D00010631A464FF67F339360FB6A5A01FB69E6
:1059E000134403F510631B68FA6A5101FA690A440B
:1059F00002F5106223F400131360FB6A5A01FB697D
:105A0000134403F530631A464FF67F339360FB6A05
:105A10005A01FB69134403F530631B68FA6A5101AC
:105A2000FA690A4402F5306223F400131360FB6A3A
:105A30005A01FB69134403F530631B68FA6A51018C
:105A4000FA690A4402F5306243F000631360FB6AAE
:105A50000133FB627B681B791A46FB6A9342B2D31F
:105A6000FB6903F50063DB69FA6902F5006243F044
:105A70000113D3617B68DB7B002B16D0FB6903F538
:105A80000063D3F88430FA6902F5006243F00B0337
:105A9000C2F88430FB6903F500635B6CFA6902F5B8
:105AA000006243F00B03536415E0FB6903F50063E8
:105AB0005B69FA6902F5006243F4005343F02B037B
:105AC0005361FB6903F500631B69FA6902F5006223
:105AD00043F00B031361FB6903F500631B68FA696C
